{
  "_format": "hh-sol-artifact-1",
  "contractName": "Kage",
  "sourceName": "contracts/Kage.sol",
  "abi": [
    {
      "inputs": [
        {
          "internalType": "address",
          "name": "backend",
          "type": "address"
        }
      ],
      "stateMutability": "nonpayable",
      "type": "constructor"
    },
    {
      "inputs": [],
      "name": "BuyTradeNotExists",
      "type": "error"
    },
    {
      "inputs": [],
      "name": "NotBackend",
      "type": "error"
    },
    {
      "inputs": [],
      "name": "NotCloseTrade",
      "type": "error"
    },
    {
      "inputs": [],
      "name": "NotLockTrade",
      "type": "error"
    },
    {
      "inputs": [],
      "name": "SellTradeNotExists",
      "type": "error"
    },
    {
      "inputs": [
        {
          "internalType": "string",
          "name": "buyTradeID",
          "type": "string"
        },
        {
          "internalType": "string",
          "name": "sellTradeID",
          "type": "string"
        }
      ],
      "name": "closeTrades",
      "outputs": [],
      "stateMutability": "nonpayable",
      "type": "function"
    },
    {
      "inputs": [
        {
          "internalType": "string",
          "name": "tradeID",
          "type": "string"
        },
        {
          "internalType": "address",
          "name": "tokenAddress",
          "type": "address"
        },
        {
          "internalType": "uint256",
          "name": "amount",
          "type": "uint256"
        }
      ],
      "name": "createTrade",
      "outputs": [],
      "stateMutability": "nonpayable",
      "type": "function"
    },
    {
      "inputs": [
        {
          "internalType": "string",
          "name": "tradeID",
          "type": "string"
        }
      ],
      "name": "tradeDetails",
      "outputs": [
        {
          "internalType": "string",
          "name": "tradeID",
          "type": "string"
        },
        {
          "internalType": "address",
          "name": "tokenAddress",
          "type": "address"
        },
        {
          "internalType": "address",
          "name": "buyer",
          "type": "address"
        },
        {
          "internalType": "uint256",
          "name": "amount",
          "type": "uint256"
        }
      ],
      "stateMutability": "view",
      "type": "function"
    },
    {
      "inputs": [
        {
          "internalType": "string",
          "name": "tradeID",
          "type": "string"
        }
      ],
      "name": "trades",
      "outputs": [
        {
          "internalType": "bool",
          "name": "exists",
          "type": "bool"
        }
      ],
      "stateMutability": "view",
      "type": "function"
    }
  ],
  "bytecode": "0x60a060405234801561001057600080fd5b50604051611402380380611402833981810160405281019061003291906100cf565b8073ffffffffffffffffffffffffffffffffffffffff1660808173ffffffffffffffffffffffffffffffffffffffff1681525050506100fc565b600080fd5b600073ffffffffffffffffffffffffffffffffffffffff82169050919050565b600061009c82610071565b9050919050565b6100ac81610091565b81146100b757600080fd5b50565b6000815190506100c9816100a3565b92915050565b6000602082840312156100e5576100e461006c565b5b60006100f3848285016100ba565b91505092915050565b6080516112eb610117600039600061049b01526112eb6000f3fe608060405234801561001057600080fd5b506004361061004b5760003560e01c806249f8711461005057806347a041001461006c57806373ecbd001461009c578063ea524e79146100cf575b600080fd5b61006a60048036038101906100659190610b37565b6100eb565b005b61008660048036038101906100819190610cec565b610355565b6040516100939190610d50565b60405180910390f35b6100b660048036038101906100b19190610cec565b61038b565b6040516100c69493929190610e08565b60405180910390f35b6100e960048036038101906100e49190610e54565b610499565b005b6000604051806080016040528086868080601f016020809104026020016040519081016040528093929190818152602001838380828437600081840152601f19601f8201169050808301925050505050505081526020018473ffffffffffffffffffffffffffffffffffffffff1681526020013373ffffffffffffffffffffffffffffffffffffffff16815260200183815250905060008373ffffffffffffffffffffffffffffffffffffffff166323b872dd3330866040518463ffffffff1660e01b81526004016101bf93929190610ed5565b6020604051808303816000875af11580156101de573d6000803e3d6000fd5b505050506040513d601f19601f820116820180604052508101906102029190610f38565b90506000151581151503610242576040517fe484a7f100000000000000000000000000000000000000000000000000000000815260040160405180910390fd5b600160008787604051610256929190610f95565b908152602001604051809103902060006101000a81548160ff021916908315150217905550816001878760405161028e929190610f95565b908152602001604051809103902060008201518160000190816102b191906111ba565b5060208201518160010160006101000a81548173ffffffffffffffffffffffffffffffffffffffff021916908373ffffffffffffffffffffffffffffffffffffffff16021790555060408201518160020160006101000a81548173ffffffffffffffffffffffffffffffffffffffff021916908373ffffffffffffffffffffffffffffffffffffffff16021790555060608201518160030155905050505050505050565b6000818051602081018201805184825260208301602085012081835280955050505050506000915054906101000a900460ff1681565b6001818051602081018201805184825260208301602085012081835280955050505050506000915090508060000180546103c490610fdd565b80601f01602080910402602001604051908101604052809291908181526020018280546103f090610fdd565b801561043d5780601f106104125761010080835404028352916020019161043d565b820191906000526020600020905b81548152906001019060200180831161042057829003601f168201915b5050505050908060010160009054906101000a900473ffffffffffffffffffffffffffffffffffffffff16908060020160009054906101000a900473ffffffffffffffffffffffffffffffffffffffff16908060030154905084565b7f000000000000000000000000000000000000000000000000000000000000000073ffffffffffffffffffffffffffffffffffffffff163373ffffffffffffffffffffffffffffffffffffffff161461051e576040517fa31c3dd000000000000000000000000000000000000000000000000000000000815260040160405180910390fd5b6000151560008585604051610534929190610f95565b908152602001604051809103902060009054906101000a900460ff16151503610589576040517fcb99ad2900000000000000000000000000000000000000000000000000000000815260040160405180910390fd5b600015156000838360405161059f929190610f95565b908152602001604051809103902060009054906101000a900460ff161515036105f4576040517ff66456d800000000000000000000000000000000000000000000000000000000815260040160405180910390fd5b600060018585604051610608929190610f95565b9081526020016040518091039020905060006001848460405161062c929190610f95565b9081526020016040518091039020905060008260010160009054906101000a900473ffffffffffffffffffffffffffffffffffffffff1673ffffffffffffffffffffffffffffffffffffffff1663a9059cbb8460020160009054906101000a900473ffffffffffffffffffffffffffffffffffffffff1684600301546040518363ffffffff1660e01b81526004016106c592919061128c565b6020604051808303816000875af11580156106e4573d6000803e3d6000fd5b505050506040513d601f19601f820116820180604052508101906107089190610f38565b90506000151581151503610748576040517f0999185900000000000000000000000000000000000000000000000000000000815260040160405180910390fd5b8160010160009054906101000a900473ffffffffffffffffffffffffffffffffffffffff1673ffffffffffffffffffffffffffffffffffffffff1663a9059cbb8360020160009054906101000a900473ffffffffffffffffffffffffffffffffffffffff1685600301546040518363ffffffff1660e01b81526004016107cf92919061128c565b6020604051808303816000875af11580156107ee573d6000803e3d6000fd5b505050506040513d601f19601f820116820180604052508101906108129190610f38565b90506000151581151503610852576040517f0999185900000000000000000000000000000000000000000000000000000000815260040160405180910390fd5b60008787604051610864929190610f95565b908152602001604051809103902060006101000a81549060ff021916905560008585604051610894929190610f95565b908152602001604051809103902060006101000a81549060ff0219169055600187876040516108c4929190610f95565b9081526020016040518091039020600080820160006108e391906109cd565b6001820160006101000a81549073ffffffffffffffffffffffffffffffffffffffff02191690556002820160006101000a81549073ffffffffffffffffffffffffffffffffffffffff0219169055600382016000905550506001858560405161094d929190610f95565b90815260200160405180910390206000808201600061096c91906109cd565b6001820160006101000a81549073ffffffffffffffffffffffffffffffffffffffff02191690556002820160006101000a81549073ffffffffffffffffffffffffffffffffffffffff02191690556003820160009055505050505050505050565b5080546109d990610fdd565b6000825580601f106109eb5750610a0a565b601f016020900490600052602060002090810190610a099190610a0d565b5b50565b5b80821115610a26576000816000905550600101610a0e565b5090565b6000604051905090565b600080fd5b600080fd5b600080fd5b600080fd5b600080fd5b60008083601f840112610a6357610a62610a3e565b5b8235905067ffffffffffffffff811115610a8057610a7f610a43565b5b602083019150836001820283011115610a9c57610a9b610a48565b5b9250929050565b600073ffffffffffffffffffffffffffffffffffffffff82169050919050565b6000610ace82610aa3565b9050919050565b610ade81610ac3565b8114610ae957600080fd5b50565b600081359050610afb81610ad5565b92915050565b6000819050919050565b610b1481610b01565b8114610b1f57600080fd5b50565b600081359050610b3181610b0b565b92915050565b60008060008060608587031215610b5157610b50610a34565b5b600085013567ffffffffffffffff811115610b6f57610b6e610a39565b5b610b7b87828801610a4d565b94509450506020610b8e87828801610aec565b9250506040610b9f87828801610b22565b91505092959194509250565b600080fd5b6000601f19601f8301169050919050565b7f4e487b7100000000000000000000000000000000000000000000000000000000600052604160045260246000fd5b610bf982610bb0565b810181811067ffffffffffffffff82111715610c1857610c17610bc1565b5b80604052505050565b6000610c2b610a2a565b9050610c378282610bf0565b919050565b600067ffffffffffffffff821115610c5757610c56610bc1565b5b610c6082610bb0565b9050602081019050919050565b82818337600083830152505050565b6000610c8f610c8a84610c3c565b610c21565b905082815260208101848484011115610cab57610caa610bab565b5b610cb6848285610c6d565b509392505050565b600082601f830112610cd357610cd2610a3e565b5b8135610ce3848260208601610c7c565b91505092915050565b600060208284031215610d0257610d01610a34565b5b600082013567ffffffffffffffff811115610d2057610d1f610a39565b5b610d2c84828501610cbe565b91505092915050565b60008115159050919050565b610d4a81610d35565b82525050565b6000602082019050610d656000830184610d41565b92915050565b600081519050919050565b600082825260208201905092915050565b60005b83811015610da5578082015181840152602081019050610d8a565b60008484015250505050565b6000610dbc82610d6b565b610dc68185610d76565b9350610dd6818560208601610d87565b610ddf81610bb0565b840191505092915050565b610df381610ac3565b82525050565b610e0281610b01565b82525050565b60006080820190508181036000830152610e228187610db1565b9050610e316020830186610dea565b610e3e6040830185610dea565b610e4b6060830184610df9565b95945050505050565b60008060008060408587031215610e6e57610e6d610a34565b5b600085013567ffffffffffffffff811115610e8c57610e8b610a39565b5b610e9887828801610a4d565b9450945050602085013567ffffffffffffffff811115610ebb57610eba610a39565b5b610ec787828801610a4d565b925092505092959194509250565b6000606082019050610eea6000830186610dea565b610ef76020830185610dea565b610f046040830184610df9565b949350505050565b610f1581610d35565b8114610f2057600080fd5b50565b600081519050610f3281610f0c565b92915050565b600060208284031215610f4e57610f4d610a34565b5b6000610f5c84828501610f23565b91505092915050565b600081905092915050565b6000610f7c8385610f65565b9350610f89838584610c6d565b82840190509392505050565b6000610fa2828486610f70565b91508190509392505050565b7f4e487b7100000000000000000000000000000000000000000000000000000000600052602260045260246000fd5b60006002820490506001821680610ff557607f821691505b60208210810361100857611007610fae565b5b50919050565b60008190508160005260206000209050919050565b60006020601f8301049050919050565b600082821b905092915050565b6000600883026110707fffffffffffffffffffffffffffffffffffffffffffffffffffffffffffffffff82611033565b61107a8683611033565b95508019841693508086168417925050509392505050565b6000819050919050565b60006110b76110b26110ad84610b01565b611092565b610b01565b9050919050565b6000819050919050565b6110d18361109c565b6110e56110dd826110be565b848454611040565b825550505050565b600090565b6110fa6110ed565b6111058184846110c8565b505050565b5b818110156111295761111e6000826110f2565b60018101905061110b565b5050565b601f82111561116e5761113f8161100e565b61114884611023565b81016020851015611157578190505b61116b61116385611023565b83018261110a565b50505b505050565b600082821c905092915050565b600061119160001984600802611173565b1980831691505092915050565b60006111aa8383611180565b9150826002028217905092915050565b6111c382610d6b565b67ffffffffffffffff8111156111dc576111db610bc1565b5b6111e68254610fdd565b6111f182828561112d565b600060209050601f8311600181146112245760008415611212578287015190505b61121c858261119e565b865550611284565b601f1984166112328661100e565b60005b8281101561125a57848901518255600182019150602085019450602081019050611235565b868310156112775784890151611273601f891682611180565b8355505b6001600288020188555050505b505050505050565b60006040820190506112a16000830185610dea565b6112ae6020830184610df9565b939250505056fea2646970667358221220b1ca2aa3381c7471c818aafe45fa25e34f2c2a6426c5a5bbbc43e9c52811367d64736f6c634300081c0033",
  "linkReferences": {},
  "deployedLinkReferences": {}
}